{
  "address": "0x36868e731B54E9a6DeedD990072B5ec166e0689a",
  "abi": [
    {
      "inputs": [
        {
          "internalType": "address",
          "name": "_royaltyManager",
          "type": "address"
        }
      ],
      "stateMutability": "nonpayable",
      "type": "constructor"
    },
    {
      "anonymous": false,
      "inputs": [
        {
          "indexed": true,
          "internalType": "bytes32",
          "name": "node",
          "type": "bytes32"
        },
        {
          "indexed": false,
          "internalType": "uint256",
          "name": "totalAmount",
          "type": "uint256"
        },
        {
          "indexed": false,
          "internalType": "uint256",
          "name": "beneficiaryCount",
          "type": "uint256"
        }
      ],
      "name": "PaymentDistributed",
      "type": "event"
    },
    {
      "anonymous": false,
      "inputs": [
        {
          "indexed": true,
          "internalType": "bytes32",
          "name": "node",
          "type": "bytes32"
        },
        {
          "indexed": false,
          "internalType": "address",
          "name": "from",
          "type": "address"
        },
        {
          "indexed": false,
          "internalType": "uint256",
          "name": "amount",
          "type": "uint256"
        }
      ],
      "name": "PaymentReceived",
      "type": "event"
    },
    {
      "anonymous": false,
      "inputs": [
        {
          "indexed": true,
          "internalType": "bytes32",
          "name": "node",
          "type": "bytes32"
        },
        {
          "indexed": false,
          "internalType": "address",
          "name": "to",
          "type": "address"
        },
        {
          "indexed": false,
          "internalType": "uint256",
          "name": "amount",
          "type": "uint256"
        }
      ],
      "name": "PaymentReleased",
      "type": "event"
    },
    {
      "anonymous": false,
      "inputs": [
        {
          "indexed": true,
          "internalType": "bytes32",
          "name": "node",
          "type": "bytes32"
        },
        {
          "indexed": true,
          "internalType": "address",
          "name": "parent",
          "type": "address"
        },
        {
          "indexed": false,
          "internalType": "uint256",
          "name": "parentAmount",
          "type": "uint256"
        },
        {
          "indexed": true,
          "internalType": "address",
          "name": "owner",
          "type": "address"
        },
        {
          "indexed": false,
          "internalType": "uint256",
          "name": "ownerAmount",
          "type": "uint256"
        }
      ],
      "name": "RoyaltySplit",
      "type": "event"
    },
    {
      "anonymous": false,
      "inputs": [
        {
          "indexed": true,
          "internalType": "bytes32",
          "name": "node",
          "type": "bytes32"
        },
        {
          "indexed": false,
          "internalType": "address[]",
          "name": "beneficiaries",
          "type": "address[]"
        },
        {
          "indexed": false,
          "internalType": "uint256[]",
          "name": "shares",
          "type": "uint256[]"
        },
        {
          "indexed": false,
          "internalType": "uint256",
          "name": "totalShares",
          "type": "uint256"
        }
      ],
      "name": "SplitConfigured",
      "type": "event"
    },
    {
      "inputs": [
        {
          "internalType": "bytes32",
          "name": "",
          "type": "bytes32"
        },
        {
          "internalType": "uint256",
          "name": "",
          "type": "uint256"
        }
      ],
      "name": "beneficiaries",
      "outputs": [
        {
          "internalType": "address",
          "name": "",
          "type": "address"
        }
      ],
      "stateMutability": "view",
      "type": "function"
    },
    {
      "inputs": [
        {
          "internalType": "bytes32",
          "name": "node",
          "type": "bytes32"
        }
      ],
      "name": "deposit",
      "outputs": [],
      "stateMutability": "payable",
      "type": "function"
    },
    {
      "inputs": [
        {
          "internalType": "bytes32",
          "name": "node",
          "type": "bytes32"
        }
      ],
      "name": "getAllBeneficiaries",
      "outputs": [
        {
          "internalType": "address[]",
          "name": "",
          "type": "address[]"
        }
      ],
      "stateMutability": "view",
      "type": "function"
    },
    {
      "inputs": [
        {
          "internalType": "bytes32",
          "name": "node",
          "type": "bytes32"
        }
      ],
      "name": "getAllShares",
      "outputs": [
        {
          "internalType": "uint256[]",
          "name": "",
          "type": "uint256[]"
        }
      ],
      "stateMutability": "view",
      "type": "function"
    },
    {
      "inputs": [
        {
          "internalType": "bytes32",
          "name": "node",
          "type": "bytes32"
        }
      ],
      "name": "getBeneficiaryCount",
      "outputs": [
        {
          "internalType": "uint256",
          "name": "",
          "type": "uint256"
        }
      ],
      "stateMutability": "view",
      "type": "function"
    },
    {
      "inputs": [
        {
          "internalType": "bytes32",
          "name": "node",
          "type": "bytes32"
        }
      ],
      "name": "getSplitConfiguration",
      "outputs": [
        {
          "internalType": "address[]",
          "name": "_beneficiaries",
          "type": "address[]"
        },
        {
          "internalType": "uint256[]",
          "name": "_shares",
          "type": "uint256[]"
        },
        {
          "internalType": "uint256",
          "name": "totalShares",
          "type": "uint256"
        }
      ],
      "stateMutability": "view",
      "type": "function"
    },
    {
      "inputs": [
        {
          "internalType": "bytes32",
          "name": "",
          "type": "bytes32"
        }
      ],
      "name": "parentNode",
      "outputs": [
        {
          "internalType": "bytes32",
          "name": "",
          "type": "bytes32"
        }
      ],
      "stateMutability": "view",
      "type": "function"
    },
    {
      "inputs": [
        {
          "internalType": "bytes32",
          "name": "",
          "type": "bytes32"
        }
      ],
      "name": "parentRecipient",
      "outputs": [
        {
          "internalType": "address",
          "name": "",
          "type": "address"
        }
      ],
      "stateMutability": "view",
      "type": "function"
    },
    {
      "inputs": [],
      "name": "royaltyManager",
      "outputs": [
        {
          "internalType": "contract IRoyaltyManager",
          "name": "",
          "type": "address"
        }
      ],
      "stateMutability": "view",
      "type": "function"
    },
    {
      "inputs": [
        {
          "internalType": "bytes32",
          "name": "node",
          "type": "bytes32"
        },
        {
          "internalType": "bytes32",
          "name": "_parentNode",
          "type": "bytes32"
        },
        {
          "internalType": "address",
          "name": "_parentRecipient",
          "type": "address"
        }
      ],
      "name": "setupParentRoyalty",
      "outputs": [],
      "stateMutability": "nonpayable",
      "type": "function"
    },
    {
      "inputs": [
        {
          "internalType": "bytes32",
          "name": "node",
          "type": "bytes32"
        },
        {
          "internalType": "address[]",
          "name": "_beneficiaries",
          "type": "address[]"
        },
        {
          "internalType": "uint256[]",
          "name": "_shares",
          "type": "uint256[]"
        }
      ],
      "name": "setupSplit",
      "outputs": [],
      "stateMutability": "nonpayable",
      "type": "function"
    },
    {
      "inputs": [
        {
          "internalType": "bytes32",
          "name": "",
          "type": "bytes32"
        },
        {
          "internalType": "uint256",
          "name": "",
          "type": "uint256"
        }
      ],
      "name": "shares",
      "outputs": [
        {
          "internalType": "uint256",
          "name": "",
          "type": "uint256"
        }
      ],
      "stateMutability": "view",
      "type": "function"
    }
  ],
  "transactionHash": "0x2acd1cd8d58fb2169e4948132540ba58859634907b39e18c34541fe4a5b4e23a",
  "args": [
    "0x31692D9370E9f448B822c47e7662ab6bf50AF216"
  ],
  "numDeployments": 3,
  "solcInputHash": "505ffc60f195d6b3640935a1fd1efbbe",
  "bytecode": "0x608060405234801561001057600080fd5b506040516112f63803806112f683398101604081905261002f91610054565b600080546001600160a01b0319166001600160a01b0392909216919091179055610084565b60006020828403121561006657600080fd5b81516001600160a01b038116811461007d57600080fd5b9392505050565b611263806100936000396000f3fe6080604052600436106100a75760003560e01c8063b6463ba711610064578063b6463ba7146101d6578063d21449e81461020e578063dc27436e1461023b578063ee295d621461025b578063faabb1a11461027b578063fdee4f15146102a857600080fd5b80631ca087a9146100ac57806323b67ba414610103578063263d5f111461013b57806330932aa614610169578063a3099ee314610196578063b214faa5146101c3575b600080fd5b3480156100b857600080fd5b506101016100c7366004610e82565b60009283526004602090815260408085209390935560039052912080546001600160a01b0319166001600160a01b03909216919091179055565b005b34801561010f57600080fd5b5061012361011e366004610eb7565b6102de565b60405161013293929190610f44565b60405180910390f35b34801561014757600080fd5b5061015b610156366004610f7a565b6103c6565b604051908152602001610132565b34801561017557600080fd5b5061015b610184366004610eb7565b60009081526001602052604090205490565b3480156101a257600080fd5b506101b66101b1366004610eb7565b6103f7565b6040516101329190610f9c565b6101016101d1366004610eb7565b610463565b3480156101e257600080fd5b506101f66101f1366004610f7a565b6109fc565b6040516001600160a01b039091168152602001610132565b34801561021a57600080fd5b5061015b610229366004610eb7565b60046020526000908152604090205481565b34801561024757600080fd5b5061010161025636600461108c565b610a34565b34801561026757600080fd5b506000546101f6906001600160a01b031681565b34801561028757600080fd5b5061029b610296366004610eb7565b610ca3565b6040516101329190611157565b3480156102b457600080fd5b506101f66102c3366004610eb7565b6003602052600090815260409020546001600160a01b031681565b60608060006001600085815260200190815260200160002080548060200260200160405190810160405280929190818152602001828054801561034a57602002820191906000526020600020905b81546001600160a01b0316815260019091019060200180831161032c575b50505050509250600260008581526020019081526020016000208054806020026020016040519081016040528092919081815260200182805480156103ae57602002820191906000526020600020905b81548152602001906001019080831161039a575b505050505091506103be84610d04565b929491935050565b600260205281600052604060002081815481106103e257600080fd5b90600052602060002001600091509150505481565b60008181526001602090815260409182902080548351818402810184019094528084526060939283018282801561045757602002820191906000526020600020905b81546001600160a01b03168152600190910190602001808311610439575b50505050509050919050565b34806104ab5760405162461bcd60e51b81526020600482015260126024820152710416d6f756e74206d757374206265203e20360741b60448201526064015b60405180910390fd5b6000828152600460209081526040808320546003909252909120546001600160a01b031681158015906104e657506001600160a01b03811615155b156106855760008054604051631fc6a88760e31b8152600481018590526001600160a01b039091169063fe35443890602401602060405180830381865afa158015610535573d6000803e3d6000fd5b505050506040513d601f19601f82011682018060405250810190610559919061116a565b905080156106835760006127106105708387611199565b61057a91906111b6565b9050600061058882876111d8565b90506000846001600160a01b03168360405160006040518083038185875af1925050503d80600081146105d7576040519150601f19603f3d011682016040523d82523d6000602084013e6105dc565b606091505b50509050806106255760405162461bcd60e51b815260206004820152601560248201527414185c995b9d081c185e5b595b9d0819985a5b1959605a1b60448201526064016104a2565b819650336001600160a01b0316856001600160a01b0316897fc9c0302be1407805d5883af289dd8d27a22d720134240b1ac7e6639723f8c95c8686604051610677929190918252602082015260400190565b60405180910390a45050505b505b600061069085610d04565b9050801561097a576000858152600160209081526040808320805482518185028101850190935280835291929091908301828280156106f857602002820191906000526020600020905b81546001600160a01b031681526001909101906020018083116106da575b5050505050905060006002600088815260200190815260200160002080548060200260200160405190810160405280929190818152602001828054801561075e57602002820191906000526020600020905b81548152602001906001019080831161074a575b5050505050905082612710146107b65760405162461bcd60e51b815260206004820152601b60248201527f496e76616c696420736861726520636f6e66696775726174696f6e000000000060448201526064016104a2565b60005b825181101561092e576000848383815181106107d7576107d76111eb565b6020026020010151896107ea9190611199565b6107f491906111b6565b9050600084838151811061080a5761080a6111eb565b60200260200101516001600160a01b03168260405160006040518083038185875af1925050503d806000811461085c576040519150601f19603f3d011682016040523d82523d6000602084013e610861565b606091505b50509050806108b25760405162461bcd60e51b815260206004820152601a60248201527f42656e6566696369617279207061796d656e74206661696c656400000000000060448201526064016104a2565b897f1e170c3b430cc6fdcdaa453c42619ac587e13793aa81a489fab9ebd7019c2efb8685815181106108e6576108e66111eb565b6020026020010151846040516109119291906001600160a01b03929092168252602082015260400190565b60405180910390a25050808061092690611201565b9150506107b9565b50867f3db739f722d85c4f621868e59d1396c86ed2f85accaa5f0af75bab26a34e65e787845160405161096b929190918252602082015260400190565b60405180910390a250506109bb565b60405162461bcd60e51b815260206004820152601660248201527527379039b83634ba1031b7b73334b3bab930ba34b7b760511b60448201526064016104a2565b6040805133815234602082015286917f3b5907c9aaeaeef015f385111975b015225e1001bf659370e62c15e13373bc6d910160405180910390a25050505050565b60016020528160005260406000208181548110610a1857600080fd5b6000918252602090912001546001600160a01b03169150829050565b8051825114610a775760405162461bcd60e51b815260206004820152600f60248201526e098cadccee8d040dad2e6dac2e8c6d608b1b60448201526064016104a2565b6000825111610abb5760405162461bcd60e51b815260206004820152601060248201526f4e6f2062656e6566696369617269657360801b60448201526064016104a2565b6000805b8251811015610bcf5760006001600160a01b0316848281518110610ae557610ae56111eb565b60200260200101516001600160a01b031603610b395760405162461bcd60e51b8152602060048201526013602482015272496e76616c69642062656e656669636961727960681b60448201526064016104a2565b6000838281518110610b4d57610b4d6111eb565b602002602001015111610b965760405162461bcd60e51b815260206004820152601160248201527005368617265206d757374206265203e203607c1b60448201526064016104a2565b828181518110610ba857610ba86111eb565b602002602001015182610bbb919061121a565b915080610bc781611201565b915050610abf565b508061271014610c215760405162461bcd60e51b815260206004820152601b60248201527f536861726573206d75737420746f74616c20313030303020425053000000000060448201526064016104a2565b60008481526001602090815260409091208451610c4092860190610db1565b5060008481526002602090815260409091208351610c6092850190610e16565b50837fd4e8c5ba1da330c49abb65e30af40f6bdc3eb30cf4f1b574e27e865e8c5988e1848484604051610c9593929190610f44565b60405180910390a250505050565b60008181526002602090815260409182902080548351818402810184019094528084526060939283018282801561045757602002820191906000526020600020905b815481526020019060010190808311610ce55750505050509050919050565b6000818152600260209081526040808320805482518185028101850190935280835284938493929190830182828015610d5c57602002820191906000526020600020905b815481526020019060010190808311610d48575b5050505050905060005b8151811015610da857818181518110610d8157610d816111eb565b602002602001015183610d94919061121a565b925080610da081611201565b915050610d66565b50909392505050565b828054828255906000526020600020908101928215610e06579160200282015b82811115610e0657825182546001600160a01b0319166001600160a01b03909116178255602090920191600190910190610dd1565b50610e12929150610e51565b5090565b828054828255906000526020600020908101928215610e06579160200282015b82811115610e06578251825591602001919060010190610e36565b5b80821115610e125760008155600101610e52565b80356001600160a01b0381168114610e7d57600080fd5b919050565b600080600060608486031215610e9757600080fd5b8335925060208401359150610eae60408501610e66565b90509250925092565b600060208284031215610ec957600080fd5b5035919050565b600081518084526020808501945080840160005b83811015610f095781516001600160a01b031687529582019590820190600101610ee4565b509495945050505050565b600081518084526020808501945080840160005b83811015610f0957815187529582019590820190600101610f28565b606081526000610f576060830186610ed0565b8281036020840152610f698186610f14565b915050826040830152949350505050565b60008060408385031215610f8d57600080fd5b50508035926020909101359150565b602081526000610faf6020830184610ed0565b9392505050565b634e487b7160e01b600052604160045260246000fd5b604051601f8201601f1916810167ffffffffffffffff81118282101715610ff557610ff5610fb6565b604052919050565b600067ffffffffffffffff82111561101757611017610fb6565b5060051b60200190565b600082601f83011261103257600080fd5b8135602061104761104283610ffd565b610fcc565b82815260059290921b8401810191818101908684111561106657600080fd5b8286015b84811015611081578035835291830191830161106a565b509695505050505050565b6000806000606084860312156110a157600080fd5b8335925060208085013567ffffffffffffffff808211156110c157600080fd5b818701915087601f8301126110d557600080fd5b81356110e361104282610ffd565b81815260059190911b8301840190848101908a83111561110257600080fd5b938501935b828510156111275761111885610e66565b82529385019390850190611107565b96505050604087013592508083111561113f57600080fd5b505061114d86828701611021565b9150509250925092565b602081526000610faf6020830184610f14565b60006020828403121561117c57600080fd5b5051919050565b634e487b7160e01b600052601160045260246000fd5b80820281158282048414176111b0576111b0611183565b92915050565b6000826111d357634e487b7160e01b600052601260045260246000fd5b500490565b818103818111156111b0576111b0611183565b634e487b7160e01b600052603260045260246000fd5b60006001820161121357611213611183565b5060010190565b808201808211156111b0576111b061118356fea2646970667358221220f3a9fe6938bc335dbaeb2c57f77977c93ceba1d9d68abdbf215771f4bad87a7564736f6c63430008140033",
  "devdoc": {
    "kind": "dev",
    "methods": {},
    "version": 1
  },
  "userdoc": {
    "kind": "user",
    "methods": {},
    "version": 1
  },
  "storageLayout": {
    "storage": [
      {
        "astId": 12,
        "contract": "contracts/RoyaltyPaymentSplitter.sol:RoyaltyPaymentSplitter",
        "label": "royaltyManager",
        "offset": 0,
        "slot": "0",
        "type": "t_contract(IRoyaltyManager)9"
      },
      {
        "astId": 17,
        "contract": "contracts/RoyaltyPaymentSplitter.sol:RoyaltyPaymentSplitter",
        "label": "beneficiaries",
        "offset": 0,
        "slot": "1",
        "type": "t_mapping(t_bytes32,t_array(t_address)dyn_storage)"
      },
      {
        "astId": 22,
        "contract": "contracts/RoyaltyPaymentSplitter.sol:RoyaltyPaymentSplitter",
        "label": "shares",
        "offset": 0,
        "slot": "2",
        "type": "t_mapping(t_bytes32,t_array(t_uint256)dyn_storage)"
      },
      {
        "astId": 26,
        "contract": "contracts/RoyaltyPaymentSplitter.sol:RoyaltyPaymentSplitter",
        "label": "parentRecipient",
        "offset": 0,
        "slot": "3",
        "type": "t_mapping(t_bytes32,t_address)"
      },
      {
        "astId": 30,
        "contract": "contracts/RoyaltyPaymentSplitter.sol:RoyaltyPaymentSplitter",
        "label": "parentNode",
        "offset": 0,
        "slot": "4",
        "type": "t_mapping(t_bytes32,t_bytes32)"
      }
    ],
    "types": {
      "t_address": {
        "encoding": "inplace",
        "label": "address",
        "numberOfBytes": "20"
      },
      "t_array(t_address)dyn_storage": {
        "base": "t_address",
        "encoding": "dynamic_array",
        "label": "address[]",
        "numberOfBytes": "32"
      },
      "t_array(t_uint256)dyn_storage": {
        "base": "t_uint256",
        "encoding": "dynamic_array",
        "label": "uint256[]",
        "numberOfBytes": "32"
      },
      "t_bytes32": {
        "encoding": "inplace",
        "label": "bytes32",
        "numberOfBytes": "32"
      },
      "t_contract(IRoyaltyManager)9": {
        "encoding": "inplace",
        "label": "contract IRoyaltyManager",
        "numberOfBytes": "20"
      },
      "t_mapping(t_bytes32,t_address)": {
        "encoding": "mapping",
        "key": "t_bytes32",
        "label": "mapping(bytes32 => address)",
        "numberOfBytes": "32",
        "value": "t_address"
      },
      "t_mapping(t_bytes32,t_array(t_address)dyn_storage)": {
        "encoding": "mapping",
        "key": "t_bytes32",
        "label": "mapping(bytes32 => address[])",
        "numberOfBytes": "32",
        "value": "t_array(t_address)dyn_storage"
      },
      "t_mapping(t_bytes32,t_array(t_uint256)dyn_storage)": {
        "encoding": "mapping",
        "key": "t_bytes32",
        "label": "mapping(bytes32 => uint256[])",
        "numberOfBytes": "32",
        "value": "t_array(t_uint256)dyn_storage"
      },
      "t_mapping(t_bytes32,t_bytes32)": {
        "encoding": "mapping",
        "key": "t_bytes32",
        "label": "mapping(bytes32 => bytes32)",
        "numberOfBytes": "32",
        "value": "t_bytes32"
      },
      "t_uint256": {
        "encoding": "inplace",
        "label": "uint256",
        "numberOfBytes": "32"
      }
    }
  }
}