{
  "address": "0x87B327e78Ced3F0B12D7FD0D09999Ee9d2899b2D",
  "abi": [
    {
      "inputs": [
        {
          "internalType": "address",
          "name": "_royaltyManager",
          "type": "address"
        }
      ],
      "stateMutability": "nonpayable",
      "type": "constructor"
    },
    {
      "anonymous": false,
      "inputs": [
        {
          "indexed": true,
          "internalType": "bytes32",
          "name": "node",
          "type": "bytes32"
        },
        {
          "indexed": false,
          "internalType": "address",
          "name": "from",
          "type": "address"
        },
        {
          "indexed": false,
          "internalType": "uint256",
          "name": "amount",
          "type": "uint256"
        }
      ],
      "name": "PaymentReceived",
      "type": "event"
    },
    {
      "anonymous": false,
      "inputs": [
        {
          "indexed": true,
          "internalType": "bytes32",
          "name": "node",
          "type": "bytes32"
        },
        {
          "indexed": false,
          "internalType": "address",
          "name": "to",
          "type": "address"
        },
        {
          "indexed": false,
          "internalType": "uint256",
          "name": "amount",
          "type": "uint256"
        }
      ],
      "name": "PaymentReleased",
      "type": "event"
    },
    {
      "anonymous": false,
      "inputs": [
        {
          "indexed": true,
          "internalType": "bytes32",
          "name": "node",
          "type": "bytes32"
        },
        {
          "indexed": true,
          "internalType": "address",
          "name": "parent",
          "type": "address"
        },
        {
          "indexed": false,
          "internalType": "uint256",
          "name": "parentAmount",
          "type": "uint256"
        },
        {
          "indexed": true,
          "internalType": "address",
          "name": "owner",
          "type": "address"
        },
        {
          "indexed": false,
          "internalType": "uint256",
          "name": "ownerAmount",
          "type": "uint256"
        }
      ],
      "name": "RoyaltySplit",
      "type": "event"
    },
    {
      "inputs": [
        {
          "internalType": "bytes32",
          "name": "",
          "type": "bytes32"
        },
        {
          "internalType": "uint256",
          "name": "",
          "type": "uint256"
        }
      ],
      "name": "beneficiaries",
      "outputs": [
        {
          "internalType": "address",
          "name": "",
          "type": "address"
        }
      ],
      "stateMutability": "view",
      "type": "function"
    },
    {
      "inputs": [
        {
          "internalType": "bytes32",
          "name": "node",
          "type": "bytes32"
        }
      ],
      "name": "deposit",
      "outputs": [],
      "stateMutability": "payable",
      "type": "function"
    },
    {
      "inputs": [
        {
          "internalType": "bytes32",
          "name": "",
          "type": "bytes32"
        }
      ],
      "name": "parentNode",
      "outputs": [
        {
          "internalType": "bytes32",
          "name": "",
          "type": "bytes32"
        }
      ],
      "stateMutability": "view",
      "type": "function"
    },
    {
      "inputs": [
        {
          "internalType": "bytes32",
          "name": "",
          "type": "bytes32"
        }
      ],
      "name": "parentRecipient",
      "outputs": [
        {
          "internalType": "address",
          "name": "",
          "type": "address"
        }
      ],
      "stateMutability": "view",
      "type": "function"
    },
    {
      "inputs": [
        {
          "internalType": "bytes32",
          "name": "",
          "type": "bytes32"
        },
        {
          "internalType": "address",
          "name": "",
          "type": "address"
        }
      ],
      "name": "pending",
      "outputs": [
        {
          "internalType": "uint256",
          "name": "",
          "type": "uint256"
        }
      ],
      "stateMutability": "view",
      "type": "function"
    },
    {
      "inputs": [
        {
          "internalType": "bytes32",
          "name": "node",
          "type": "bytes32"
        },
        {
          "internalType": "address payable",
          "name": "account",
          "type": "address"
        }
      ],
      "name": "release",
      "outputs": [],
      "stateMutability": "nonpayable",
      "type": "function"
    },
    {
      "inputs": [],
      "name": "royaltyManager",
      "outputs": [
        {
          "internalType": "contract IRoyaltyManager",
          "name": "",
          "type": "address"
        }
      ],
      "stateMutability": "view",
      "type": "function"
    },
    {
      "inputs": [
        {
          "internalType": "bytes32",
          "name": "node",
          "type": "bytes32"
        },
        {
          "internalType": "bytes32",
          "name": "_parentNode",
          "type": "bytes32"
        },
        {
          "internalType": "address",
          "name": "_parentRecipient",
          "type": "address"
        }
      ],
      "name": "setupParentRoyalty",
      "outputs": [],
      "stateMutability": "nonpayable",
      "type": "function"
    },
    {
      "inputs": [
        {
          "internalType": "bytes32",
          "name": "node",
          "type": "bytes32"
        },
        {
          "internalType": "address[]",
          "name": "_beneficiaries",
          "type": "address[]"
        },
        {
          "internalType": "uint256[]",
          "name": "_shares",
          "type": "uint256[]"
        }
      ],
      "name": "setupSplit",
      "outputs": [],
      "stateMutability": "nonpayable",
      "type": "function"
    },
    {
      "inputs": [
        {
          "internalType": "bytes32",
          "name": "",
          "type": "bytes32"
        },
        {
          "internalType": "uint256",
          "name": "",
          "type": "uint256"
        }
      ],
      "name": "shares",
      "outputs": [
        {
          "internalType": "uint256",
          "name": "",
          "type": "uint256"
        }
      ],
      "stateMutability": "view",
      "type": "function"
    }
  ],
  "transactionHash": "0xc60f25ea3516eeaf4597c8bfc852f5d5d5d6b2fc1e4601d1aa3f26acec4cdb0d",
  "args": [
    "0x31692D9370E9f448B822c47e7662ab6bf50AF216"
  ],
  "numDeployments": 1,
  "solcInputHash": "ee766fec74d549e36a0b375213726875",
  "bytecode": "0x608060405234801561001057600080fd5b50604051610d1b380380610d1b83398101604081905261002f91610054565b600080546001600160a01b0319166001600160a01b0392909216919091179055610084565b60006020828403121561006657600080fd5b81516001600160a01b038116811461007d57600080fd5b9392505050565b610c88806100936000396000f3fe6080604052600436106100915760003560e01c8063d21449e811610059578063d21449e81461018b578063da4e6595146101b8578063dc27436e146101f0578063ee295d6214610210578063fdee4f151461023057600080fd5b80631bbdcfd3146100965780631ca087a9146100b8578063263d5f111461010d578063b214faa514610140578063b6463ba714610153575b600080fd5b3480156100a257600080fd5b506100b66100b1366004610948565b610266565b005b3480156100c457600080fd5b506100b66100d3366004610978565b60009283526005602090815260408085209390935560049052912080546001600160a01b0319166001600160a01b03909216919091179055565b34801561011957600080fd5b5061012d6101283660046109b1565b610365565b6040519081526020015b60405180910390f35b6100b661014e3660046109d3565b610396565b34801561015f57600080fd5b5061017361016e3660046109b1565b61070e565b6040516001600160a01b039091168152602001610137565b34801561019757600080fd5b5061012d6101a63660046109d3565b60056020526000908152604090205481565b3480156101c457600080fd5b5061012d6101d3366004610948565b600360209081526000928352604080842090915290825290205481565b3480156101fc57600080fd5b506100b661020b366004610ac2565b610746565b34801561021c57600080fd5b50600054610173906001600160a01b031681565b34801561023c57600080fd5b5061017361024b3660046109d3565b6004602052600090815260409020546001600160a01b031681565b60008281526003602090815260408083206001600160a01b0385168452909152902054806102cc5760405162461bcd60e51b815260206004820152600e60248201526d4e6f207061796d656e742064756560901b60448201526064015b60405180910390fd5b60008381526003602090815260408083206001600160a01b038616808552925280832083905551909183156108fc02918491818181858888f1935050505015801561031b573d6000803e3d6000fd5b50604080516001600160a01b03841681526020810183905284917f1e170c3b430cc6fdcdaa453c42619ac587e13793aa81a489fab9ebd7019c2efb910160405180910390a2505050565b6002602052816000526040600020818154811061038157600080fd5b90600052602060002001600091509150505481565b6000818152600560209081526040808320546004909252909120543491906001600160a01b031681158015906103d457506001600160a01b03811615155b156105045760008054604051631fc6a88760e31b8152600481018590526001600160a01b039091169063fe35443890602401602060405180830381865afa158015610423573d6000803e3d6000fd5b505050506040513d601f19601f820116820180604052508101906104479190610b8f565b9050801561050257600061271061045e8387610bbe565b6104689190610bdb565b905060006104768287610bfd565b60008881526003602090815260408083206001600160a01b03891684529091528120805492935084929091906104ad908490610c10565b90915550506040805183815260208101839052919650869133916001600160a01b038716918a917fc9c0302be1407805d5883af289dd8d27a22d720134240b1ac7e6639723f8c95c910160405180910390a450505b505b600061050f856107ce565b9050801561069e5760008581526001602090815260408083208054825181850281018501909352808352919290919083018282801561057757602002820191906000526020600020905b81546001600160a01b03168152600190910190602001808311610559575b505050505090506000600260008881526020019081526020016000208054806020026020016040519081016040528092919081815260200182805480156105dd57602002820191906000526020600020905b8154815260200190600101908083116105c9575b5050505050905060005b8251811015610696578382828151811061060357610603610c23565b6020026020010151886106169190610bbe565b6106209190610bdb565b600360008a8152602001908152602001600020600085848151811061064757610647610c23565b60200260200101516001600160a01b03166001600160a01b03168152602001908152602001600020600082825461067e9190610c10565b9091555081905061068e81610c39565b9150506105e7565b5050506106cd565b6000858152600360209081526040808320338452909152812080548692906106c7908490610c10565b90915550505b6040805133815234602082015286917f3b5907c9aaeaeef015f385111975b015225e1001bf659370e62c15e13373bc6d910160405180910390a25050505050565b6001602052816000526040600020818154811061072a57600080fd5b6000918252602090912001546001600160a01b03169150829050565b80518251146107895760405162461bcd60e51b815260206004820152600f60248201526e098cadccee8d040dad2e6dac2e8c6d608b1b60448201526064016102c3565b600083815260016020908152604090912083516107a89285019061087b565b50600083815260026020908152604090912082516107c8928401906108e0565b50505050565b600081815260026020908152604080832080548251818502810185019093528083528493849392919083018282801561082657602002820191906000526020600020905b815481526020019060010190808311610812575b5050505050905060005b81518110156108725781818151811061084b5761084b610c23565b60200260200101518361085e9190610c10565b92508061086a81610c39565b915050610830565b50909392505050565b8280548282559060005260206000209081019282156108d0579160200282015b828111156108d057825182546001600160a01b0319166001600160a01b0390911617825560209092019160019091019061089b565b506108dc92915061091b565b5090565b8280548282559060005260206000209081019282156108d0579160200282015b828111156108d0578251825591602001919060010190610900565b5b808211156108dc576000815560010161091c565b6001600160a01b038116811461094557600080fd5b50565b6000806040838503121561095b57600080fd5b82359150602083013561096d81610930565b809150509250929050565b60008060006060848603121561098d57600080fd5b833592506020840135915060408401356109a681610930565b809150509250925092565b600080604083850312156109c457600080fd5b50508035926020909101359150565b6000602082840312156109e557600080fd5b5035919050565b634e487b7160e01b600052604160045260246000fd5b604051601f8201601f1916810167ffffffffffffffff81118282101715610a2b57610a2b6109ec565b604052919050565b600067ffffffffffffffff821115610a4d57610a4d6109ec565b5060051b60200190565b600082601f830112610a6857600080fd5b81356020610a7d610a7883610a33565b610a02565b82815260059290921b84018101918181019086841115610a9c57600080fd5b8286015b84811015610ab75780358352918301918301610aa0565b509695505050505050565b600080600060608486031215610ad757600080fd5b8335925060208085013567ffffffffffffffff80821115610af757600080fd5b818701915087601f830112610b0b57600080fd5b8135610b19610a7882610a33565b81815260059190911b8301840190848101908a831115610b3857600080fd5b938501935b82851015610b5f578435610b5081610930565b82529385019390850190610b3d565b965050506040870135925080831115610b7757600080fd5b5050610b8586828701610a57565b9150509250925092565b600060208284031215610ba157600080fd5b5051919050565b634e487b7160e01b600052601160045260246000fd5b8082028115828204841417610bd557610bd5610ba8565b92915050565b600082610bf857634e487b7160e01b600052601260045260246000fd5b500490565b81810381811115610bd557610bd5610ba8565b80820180821115610bd557610bd5610ba8565b634e487b7160e01b600052603260045260246000fd5b600060018201610c4b57610c4b610ba8565b506001019056fea2646970667358221220daf9195135178e5391875d585e71882900ad5aead31180e6f049c4470d111ff564736f6c63430008140033",
  "devdoc": {
    "kind": "dev",
    "methods": {},
    "version": 1
  },
  "userdoc": {
    "kind": "user",
    "methods": {},
    "version": 1
  },
  "storageLayout": {
    "storage": [
      {
        "astId": 12,
        "contract": "contracts/RoyaltyPaymentSplitter.sol:RoyaltyPaymentSplitter",
        "label": "royaltyManager",
        "offset": 0,
        "slot": "0",
        "type": "t_contract(IRoyaltyManager)9"
      },
      {
        "astId": 17,
        "contract": "contracts/RoyaltyPaymentSplitter.sol:RoyaltyPaymentSplitter",
        "label": "beneficiaries",
        "offset": 0,
        "slot": "1",
        "type": "t_mapping(t_bytes32,t_array(t_address)dyn_storage)"
      },
      {
        "astId": 22,
        "contract": "contracts/RoyaltyPaymentSplitter.sol:RoyaltyPaymentSplitter",
        "label": "shares",
        "offset": 0,
        "slot": "2",
        "type": "t_mapping(t_bytes32,t_array(t_uint256)dyn_storage)"
      },
      {
        "astId": 28,
        "contract": "contracts/RoyaltyPaymentSplitter.sol:RoyaltyPaymentSplitter",
        "label": "pending",
        "offset": 0,
        "slot": "3",
        "type": "t_mapping(t_bytes32,t_mapping(t_address,t_uint256))"
      },
      {
        "astId": 32,
        "contract": "contracts/RoyaltyPaymentSplitter.sol:RoyaltyPaymentSplitter",
        "label": "parentRecipient",
        "offset": 0,
        "slot": "4",
        "type": "t_mapping(t_bytes32,t_address)"
      },
      {
        "astId": 36,
        "contract": "contracts/RoyaltyPaymentSplitter.sol:RoyaltyPaymentSplitter",
        "label": "parentNode",
        "offset": 0,
        "slot": "5",
        "type": "t_mapping(t_bytes32,t_bytes32)"
      }
    ],
    "types": {
      "t_address": {
        "encoding": "inplace",
        "label": "address",
        "numberOfBytes": "20"
      },
      "t_array(t_address)dyn_storage": {
        "base": "t_address",
        "encoding": "dynamic_array",
        "label": "address[]",
        "numberOfBytes": "32"
      },
      "t_array(t_uint256)dyn_storage": {
        "base": "t_uint256",
        "encoding": "dynamic_array",
        "label": "uint256[]",
        "numberOfBytes": "32"
      },
      "t_bytes32": {
        "encoding": "inplace",
        "label": "bytes32",
        "numberOfBytes": "32"
      },
      "t_contract(IRoyaltyManager)9": {
        "encoding": "inplace",
        "label": "contract IRoyaltyManager",
        "numberOfBytes": "20"
      },
      "t_mapping(t_address,t_uint256)": {
        "encoding": "mapping",
        "key": "t_address",
        "label": "mapping(address => uint256)",
        "numberOfBytes": "32",
        "value": "t_uint256"
      },
      "t_mapping(t_bytes32,t_address)": {
        "encoding": "mapping",
        "key": "t_bytes32",
        "label": "mapping(bytes32 => address)",
        "numberOfBytes": "32",
        "value": "t_address"
      },
      "t_mapping(t_bytes32,t_array(t_address)dyn_storage)": {
        "encoding": "mapping",
        "key": "t_bytes32",
        "label": "mapping(bytes32 => address[])",
        "numberOfBytes": "32",
        "value": "t_array(t_address)dyn_storage"
      },
      "t_mapping(t_bytes32,t_array(t_uint256)dyn_storage)": {
        "encoding": "mapping",
        "key": "t_bytes32",
        "label": "mapping(bytes32 => uint256[])",
        "numberOfBytes": "32",
        "value": "t_array(t_uint256)dyn_storage"
      },
      "t_mapping(t_bytes32,t_bytes32)": {
        "encoding": "mapping",
        "key": "t_bytes32",
        "label": "mapping(bytes32 => bytes32)",
        "numberOfBytes": "32",
        "value": "t_bytes32"
      },
      "t_mapping(t_bytes32,t_mapping(t_address,t_uint256))": {
        "encoding": "mapping",
        "key": "t_bytes32",
        "label": "mapping(bytes32 => mapping(address => uint256))",
        "numberOfBytes": "32",
        "value": "t_mapping(t_address,t_uint256)"
      },
      "t_uint256": {
        "encoding": "inplace",
        "label": "uint256",
        "numberOfBytes": "32"
      }
    }
  }
}