{
  "address": "0x0191ef763e9c8a031Fc21E06a7449C9768a74921",
  "abi": [
    {
      "inputs": [
        {
          "internalType": "address",
          "name": "_royaltyManager",
          "type": "address"
        }
      ],
      "stateMutability": "nonpayable",
      "type": "constructor"
    },
    {
      "anonymous": false,
      "inputs": [
        {
          "indexed": true,
          "internalType": "bytes32",
          "name": "node",
          "type": "bytes32"
        },
        {
          "indexed": false,
          "internalType": "address",
          "name": "recipient",
          "type": "address"
        },
        {
          "indexed": false,
          "internalType": "uint256",
          "name": "amount",
          "type": "uint256"
        }
      ],
      "name": "FallbackPayment",
      "type": "event"
    },
    {
      "anonymous": false,
      "inputs": [
        {
          "indexed": true,
          "internalType": "bytes32",
          "name": "node",
          "type": "bytes32"
        },
        {
          "indexed": false,
          "internalType": "uint256",
          "name": "totalAmount",
          "type": "uint256"
        },
        {
          "indexed": false,
          "internalType": "uint256",
          "name": "beneficiaryCount",
          "type": "uint256"
        }
      ],
      "name": "PaymentDistributed",
      "type": "event"
    },
    {
      "anonymous": false,
      "inputs": [
        {
          "indexed": true,
          "internalType": "bytes32",
          "name": "node",
          "type": "bytes32"
        },
        {
          "indexed": false,
          "internalType": "address",
          "name": "from",
          "type": "address"
        },
        {
          "indexed": false,
          "internalType": "uint256",
          "name": "amount",
          "type": "uint256"
        }
      ],
      "name": "PaymentReceived",
      "type": "event"
    },
    {
      "anonymous": false,
      "inputs": [
        {
          "indexed": true,
          "internalType": "bytes32",
          "name": "node",
          "type": "bytes32"
        },
        {
          "indexed": false,
          "internalType": "address",
          "name": "to",
          "type": "address"
        },
        {
          "indexed": false,
          "internalType": "uint256",
          "name": "amount",
          "type": "uint256"
        }
      ],
      "name": "PaymentReleased",
      "type": "event"
    },
    {
      "anonymous": false,
      "inputs": [
        {
          "indexed": true,
          "internalType": "bytes32",
          "name": "node",
          "type": "bytes32"
        },
        {
          "indexed": true,
          "internalType": "address",
          "name": "parent",
          "type": "address"
        },
        {
          "indexed": false,
          "internalType": "uint256",
          "name": "parentAmount",
          "type": "uint256"
        },
        {
          "indexed": true,
          "internalType": "address",
          "name": "owner",
          "type": "address"
        },
        {
          "indexed": false,
          "internalType": "uint256",
          "name": "ownerAmount",
          "type": "uint256"
        }
      ],
      "name": "RoyaltySplit",
      "type": "event"
    },
    {
      "anonymous": false,
      "inputs": [
        {
          "indexed": true,
          "internalType": "bytes32",
          "name": "node",
          "type": "bytes32"
        },
        {
          "indexed": false,
          "internalType": "address[]",
          "name": "beneficiaries",
          "type": "address[]"
        },
        {
          "indexed": false,
          "internalType": "uint256[]",
          "name": "shares",
          "type": "uint256[]"
        },
        {
          "indexed": false,
          "internalType": "uint256",
          "name": "totalShares",
          "type": "uint256"
        }
      ],
      "name": "SplitConfigured",
      "type": "event"
    },
    {
      "inputs": [
        {
          "internalType": "bytes32",
          "name": "",
          "type": "bytes32"
        },
        {
          "internalType": "uint256",
          "name": "",
          "type": "uint256"
        }
      ],
      "name": "beneficiaries",
      "outputs": [
        {
          "internalType": "address",
          "name": "",
          "type": "address"
        }
      ],
      "stateMutability": "view",
      "type": "function"
    },
    {
      "inputs": [
        {
          "internalType": "bytes32",
          "name": "node",
          "type": "bytes32"
        }
      ],
      "name": "deposit",
      "outputs": [],
      "stateMutability": "payable",
      "type": "function"
    },
    {
      "inputs": [
        {
          "internalType": "bytes32",
          "name": "node",
          "type": "bytes32"
        }
      ],
      "name": "getAllBeneficiaries",
      "outputs": [
        {
          "internalType": "address[]",
          "name": "",
          "type": "address[]"
        }
      ],
      "stateMutability": "view",
      "type": "function"
    },
    {
      "inputs": [
        {
          "internalType": "bytes32",
          "name": "node",
          "type": "bytes32"
        }
      ],
      "name": "getAllShares",
      "outputs": [
        {
          "internalType": "uint256[]",
          "name": "",
          "type": "uint256[]"
        }
      ],
      "stateMutability": "view",
      "type": "function"
    },
    {
      "inputs": [
        {
          "internalType": "bytes32",
          "name": "node",
          "type": "bytes32"
        }
      ],
      "name": "getBeneficiaryCount",
      "outputs": [
        {
          "internalType": "uint256",
          "name": "",
          "type": "uint256"
        }
      ],
      "stateMutability": "view",
      "type": "function"
    },
    {
      "inputs": [
        {
          "internalType": "bytes32",
          "name": "node",
          "type": "bytes32"
        },
        {
          "internalType": "address",
          "name": "account",
          "type": "address"
        }
      ],
      "name": "getPendingBalance",
      "outputs": [
        {
          "internalType": "uint256",
          "name": "",
          "type": "uint256"
        }
      ],
      "stateMutability": "view",
      "type": "function"
    },
    {
      "inputs": [
        {
          "internalType": "bytes32",
          "name": "node",
          "type": "bytes32"
        }
      ],
      "name": "getSplitConfiguration",
      "outputs": [
        {
          "internalType": "address[]",
          "name": "_beneficiaries",
          "type": "address[]"
        },
        {
          "internalType": "uint256[]",
          "name": "_shares",
          "type": "uint256[]"
        },
        {
          "internalType": "uint256",
          "name": "totalShares",
          "type": "uint256"
        }
      ],
      "stateMutability": "view",
      "type": "function"
    },
    {
      "inputs": [
        {
          "internalType": "bytes32",
          "name": "",
          "type": "bytes32"
        }
      ],
      "name": "parentNode",
      "outputs": [
        {
          "internalType": "bytes32",
          "name": "",
          "type": "bytes32"
        }
      ],
      "stateMutability": "view",
      "type": "function"
    },
    {
      "inputs": [
        {
          "internalType": "bytes32",
          "name": "",
          "type": "bytes32"
        }
      ],
      "name": "parentRecipient",
      "outputs": [
        {
          "internalType": "address",
          "name": "",
          "type": "address"
        }
      ],
      "stateMutability": "view",
      "type": "function"
    },
    {
      "inputs": [
        {
          "internalType": "bytes32",
          "name": "",
          "type": "bytes32"
        },
        {
          "internalType": "address",
          "name": "",
          "type": "address"
        }
      ],
      "name": "pending",
      "outputs": [
        {
          "internalType": "uint256",
          "name": "",
          "type": "uint256"
        }
      ],
      "stateMutability": "view",
      "type": "function"
    },
    {
      "inputs": [
        {
          "internalType": "bytes32",
          "name": "node",
          "type": "bytes32"
        },
        {
          "internalType": "address payable",
          "name": "account",
          "type": "address"
        }
      ],
      "name": "release",
      "outputs": [],
      "stateMutability": "nonpayable",
      "type": "function"
    },
    {
      "inputs": [],
      "name": "royaltyManager",
      "outputs": [
        {
          "internalType": "contract IRoyaltyManager",
          "name": "",
          "type": "address"
        }
      ],
      "stateMutability": "view",
      "type": "function"
    },
    {
      "inputs": [
        {
          "internalType": "bytes32",
          "name": "node",
          "type": "bytes32"
        },
        {
          "internalType": "bytes32",
          "name": "_parentNode",
          "type": "bytes32"
        },
        {
          "internalType": "address",
          "name": "_parentRecipient",
          "type": "address"
        }
      ],
      "name": "setupParentRoyalty",
      "outputs": [],
      "stateMutability": "nonpayable",
      "type": "function"
    },
    {
      "inputs": [
        {
          "internalType": "bytes32",
          "name": "node",
          "type": "bytes32"
        },
        {
          "internalType": "address[]",
          "name": "_beneficiaries",
          "type": "address[]"
        },
        {
          "internalType": "uint256[]",
          "name": "_shares",
          "type": "uint256[]"
        }
      ],
      "name": "setupSplit",
      "outputs": [],
      "stateMutability": "nonpayable",
      "type": "function"
    },
    {
      "inputs": [
        {
          "internalType": "bytes32",
          "name": "",
          "type": "bytes32"
        },
        {
          "internalType": "uint256",
          "name": "",
          "type": "uint256"
        }
      ],
      "name": "shares",
      "outputs": [
        {
          "internalType": "uint256",
          "name": "",
          "type": "uint256"
        }
      ],
      "stateMutability": "view",
      "type": "function"
    }
  ],
  "transactionHash": "0x0724ba367178121611577c81b685aa33a5cf27e5c2c959133af707cb7a00f502",
  "args": [
    "0x31692D9370E9f448B822c47e7662ab6bf50AF216"
  ],
  "numDeployments": 2,
  "solcInputHash": "65d6945106926de91662db147f9c8a2c",
  "bytecode": "0x608060405234801561001057600080fd5b5060405161136238038061136283398101604081905261002f91610054565b600080546001600160a01b0319166001600160a01b0392909216919091179055610084565b60006020828403121561006657600080fd5b81516001600160a01b038116811461007d57600080fd5b9392505050565b6112cf806100936000396000f3fe6080604052600436106100e85760003560e01c8063b214faa51161008a578063dc27436e11610059578063dc27436e146102f4578063ee295d6214610314578063faabb1a114610334578063fdee4f151461036157600080fd5b8063b214faa514610244578063b6463ba714610257578063d21449e81461028f578063da4e6595146102bc57600080fd5b8063260efdb7116100c6578063260efdb71461019c578063263d5f11146101ca57806330932aa6146101ea578063a3099ee31461021757600080fd5b80631bbdcfd3146100ed5780631ca087a91461010f57806323b67ba414610164575b600080fd5b3480156100f957600080fd5b5061010d610108366004610ebe565b610397565b005b34801561011b57600080fd5b5061010d61012a366004610eee565b60009283526005602090815260408085209390935560049052912080546001600160a01b0319166001600160a01b03909216919091179055565b34801561017057600080fd5b5061018461017f366004610f27565b610496565b60405161019393929190610fb4565b60405180910390f35b3480156101a857600080fd5b506101bc6101b7366004610ebe565b61057e565b604051908152602001610193565b3480156101d657600080fd5b506101bc6101e5366004610fea565b6105a8565b3480156101f657600080fd5b506101bc610205366004610f27565b60009081526001602052604090205490565b34801561022357600080fd5b50610237610232366004610f27565b6105d9565b604051610193919061100c565b61010d610252366004610f27565b610645565b34801561026357600080fd5b50610277610272366004610fea565b610a3c565b6040516001600160a01b039091168152602001610193565b34801561029b57600080fd5b506101bc6102aa366004610f27565b60056020526000908152604090205481565b3480156102c857600080fd5b506101bc6102d7366004610ebe565b600360209081526000928352604080842090915290825290205481565b34801561030057600080fd5b5061010d61030f3660046110fc565b610a74565b34801561032057600080fd5b50600054610277906001600160a01b031681565b34801561034057600080fd5b5061035461034f366004610f27565b610ce3565b60405161019391906111c9565b34801561036d57600080fd5b5061027761037c366004610f27565b6004602052600090815260409020546001600160a01b031681565b60008281526003602090815260408083206001600160a01b0385168452909152902054806103fd5760405162461bcd60e51b815260206004820152600e60248201526d4e6f207061796d656e742064756560901b60448201526064015b60405180910390fd5b60008381526003602090815260408083206001600160a01b038616808552925280832083905551909183156108fc02918491818181858888f1935050505015801561044c573d6000803e3d6000fd5b50604080516001600160a01b03841681526020810183905284917f1e170c3b430cc6fdcdaa453c42619ac587e13793aa81a489fab9ebd7019c2efb910160405180910390a2505050565b60608060006001600085815260200190815260200160002080548060200260200160405190810160405280929190818152602001828054801561050257602002820191906000526020600020905b81546001600160a01b031681526001909101906020018083116104e4575b505050505092506002600085815260200190815260200160002080548060200260200160405190810160405280929190818152602001828054801561056657602002820191906000526020600020905b815481526020019060010190808311610552575b5050505050915061057684610d44565b929491935050565b60008281526003602090815260408083206001600160a01b03851684529091529020545b92915050565b600260205281600052604060002081815481106105c457600080fd5b90600052602060002001600091509150505481565b60008181526001602090815260409182902080548351818402810184019094528084526060939283018282801561063957602002820191906000526020600020905b81546001600160a01b0316815260019091019060200180831161061b575b50505050509050919050565b6000818152600560209081526040808320546004909252909120543491906001600160a01b0316811580159061068357506001600160a01b03811615155b156107b35760008054604051631fc6a88760e31b8152600481018590526001600160a01b039091169063fe35443890602401602060405180830381865afa1580156106d2573d6000803e3d6000fd5b505050506040513d601f19601f820116820180604052508101906106f691906111dc565b905080156107b157600061271061070d838761120b565b6107179190611222565b905060006107258287611244565b60008881526003602090815260408083206001600160a01b038916845290915281208054929350849290919061075c908490611257565b90915550506040805183815260208101839052919650869133916001600160a01b038716918a917fc9c0302be1407805d5883af289dd8d27a22d720134240b1ac7e6639723f8c95c910160405180910390a450505b505b60006107be85610d44565b905080156109915760008581526001602090815260408083208054825181850281018501909352808352919290919083018282801561082657602002820191906000526020600020905b81546001600160a01b03168152600190910190602001808311610808575b5050505050905060006002600088815260200190815260200160002080548060200260200160405190810160405280929190818152602001828054801561088c57602002820191906000526020600020905b815481526020019060010190808311610878575b5050505050905060005b825181101561094557838282815181106108b2576108b261126a565b6020026020010151886108c5919061120b565b6108cf9190611222565b600360008a815260200190815260200160002060008584815181106108f6576108f661126a565b60200260200101516001600160a01b03166001600160a01b03168152602001908152602001600020600082825461092d9190611257565b9091555081905061093d81611280565b915050610896565b50867f3db739f722d85c4f621868e59d1396c86ed2f85accaa5f0af75bab26a34e65e7878451604051610982929190918252602082015260400190565b60405180910390a250506109fb565b6000858152600360209081526040808320338452909152812080548692906109ba908490611257565b9091555050604080513381526020810186905286917fd75b9c639dfc23d1c8df5d5c1753ede2ddcf3af3d0f5a71f5219fbbb6d6af163910160405180910390a25b6040805133815234602082015286917f3b5907c9aaeaeef015f385111975b015225e1001bf659370e62c15e13373bc6d910160405180910390a25050505050565b60016020528160005260406000208181548110610a5857600080fd5b6000918252602090912001546001600160a01b03169150829050565b8051825114610ab75760405162461bcd60e51b815260206004820152600f60248201526e098cadccee8d040dad2e6dac2e8c6d608b1b60448201526064016103f4565b6000825111610afb5760405162461bcd60e51b815260206004820152601060248201526f4e6f2062656e6566696369617269657360801b60448201526064016103f4565b6000805b8251811015610c0f5760006001600160a01b0316848281518110610b2557610b2561126a565b60200260200101516001600160a01b031603610b795760405162461bcd60e51b8152602060048201526013602482015272496e76616c69642062656e656669636961727960681b60448201526064016103f4565b6000838281518110610b8d57610b8d61126a565b602002602001015111610bd65760405162461bcd60e51b815260206004820152601160248201527005368617265206d757374206265203e203607c1b60448201526064016103f4565b828181518110610be857610be861126a565b602002602001015182610bfb9190611257565b915080610c0781611280565b915050610aff565b508061271014610c615760405162461bcd60e51b815260206004820152601b60248201527f536861726573206d75737420746f74616c20313030303020425053000000000060448201526064016103f4565b60008481526001602090815260409091208451610c8092860190610df1565b5060008481526002602090815260409091208351610ca092850190610e56565b50837fd4e8c5ba1da330c49abb65e30af40f6bdc3eb30cf4f1b574e27e865e8c5988e1848484604051610cd593929190610fb4565b60405180910390a250505050565b60008181526002602090815260409182902080548351818402810184019094528084526060939283018282801561063957602002820191906000526020600020905b815481526020019060010190808311610d255750505050509050919050565b6000818152600260209081526040808320805482518185028101850190935280835284938493929190830182828015610d9c57602002820191906000526020600020905b815481526020019060010190808311610d88575b5050505050905060005b8151811015610de857818181518110610dc157610dc161126a565b602002602001015183610dd49190611257565b925080610de081611280565b915050610da6565b50909392505050565b828054828255906000526020600020908101928215610e46579160200282015b82811115610e4657825182546001600160a01b0319166001600160a01b03909116178255602090920191600190910190610e11565b50610e52929150610e91565b5090565b828054828255906000526020600020908101928215610e46579160200282015b82811115610e46578251825591602001919060010190610e76565b5b80821115610e525760008155600101610e92565b6001600160a01b0381168114610ebb57600080fd5b50565b60008060408385031215610ed157600080fd5b823591506020830135610ee381610ea6565b809150509250929050565b600080600060608486031215610f0357600080fd5b83359250602084013591506040840135610f1c81610ea6565b809150509250925092565b600060208284031215610f3957600080fd5b5035919050565b600081518084526020808501945080840160005b83811015610f795781516001600160a01b031687529582019590820190600101610f54565b509495945050505050565b600081518084526020808501945080840160005b83811015610f7957815187529582019590820190600101610f98565b606081526000610fc76060830186610f40565b8281036020840152610fd98186610f84565b915050826040830152949350505050565b60008060408385031215610ffd57600080fd5b50508035926020909101359150565b60208152600061101f6020830184610f40565b9392505050565b634e487b7160e01b600052604160045260246000fd5b604051601f8201601f1916810167ffffffffffffffff8111828210171561106557611065611026565b604052919050565b600067ffffffffffffffff82111561108757611087611026565b5060051b60200190565b600082601f8301126110a257600080fd5b813560206110b76110b28361106d565b61103c565b82815260059290921b840181019181810190868411156110d657600080fd5b8286015b848110156110f157803583529183019183016110da565b509695505050505050565b60008060006060848603121561111157600080fd5b8335925060208085013567ffffffffffffffff8082111561113157600080fd5b818701915087601f83011261114557600080fd5b81356111536110b28261106d565b81815260059190911b8301840190848101908a83111561117257600080fd5b938501935b8285101561119957843561118a81610ea6565b82529385019390850190611177565b9650505060408701359250808311156111b157600080fd5b50506111bf86828701611091565b9150509250925092565b60208152600061101f6020830184610f84565b6000602082840312156111ee57600080fd5b5051919050565b634e487b7160e01b600052601160045260246000fd5b80820281158282048414176105a2576105a26111f5565b60008261123f57634e487b7160e01b600052601260045260246000fd5b500490565b818103818111156105a2576105a26111f5565b808201808211156105a2576105a26111f5565b634e487b7160e01b600052603260045260246000fd5b600060018201611292576112926111f5565b506001019056fea264697066735822122007d530778c1c3248edb60025d196953bddef49efa5c86a3f0dfbd85257667a3564736f6c63430008140033",
  "devdoc": {
    "kind": "dev",
    "methods": {},
    "version": 1
  },
  "userdoc": {
    "kind": "user",
    "methods": {},
    "version": 1
  },
  "storageLayout": {
    "storage": [
      {
        "astId": 12,
        "contract": "contracts/RoyaltyPaymentSplitter.sol:RoyaltyPaymentSplitter",
        "label": "royaltyManager",
        "offset": 0,
        "slot": "0",
        "type": "t_contract(IRoyaltyManager)9"
      },
      {
        "astId": 17,
        "contract": "contracts/RoyaltyPaymentSplitter.sol:RoyaltyPaymentSplitter",
        "label": "beneficiaries",
        "offset": 0,
        "slot": "1",
        "type": "t_mapping(t_bytes32,t_array(t_address)dyn_storage)"
      },
      {
        "astId": 22,
        "contract": "contracts/RoyaltyPaymentSplitter.sol:RoyaltyPaymentSplitter",
        "label": "shares",
        "offset": 0,
        "slot": "2",
        "type": "t_mapping(t_bytes32,t_array(t_uint256)dyn_storage)"
      },
      {
        "astId": 28,
        "contract": "contracts/RoyaltyPaymentSplitter.sol:RoyaltyPaymentSplitter",
        "label": "pending",
        "offset": 0,
        "slot": "3",
        "type": "t_mapping(t_bytes32,t_mapping(t_address,t_uint256))"
      },
      {
        "astId": 32,
        "contract": "contracts/RoyaltyPaymentSplitter.sol:RoyaltyPaymentSplitter",
        "label": "parentRecipient",
        "offset": 0,
        "slot": "4",
        "type": "t_mapping(t_bytes32,t_address)"
      },
      {
        "astId": 36,
        "contract": "contracts/RoyaltyPaymentSplitter.sol:RoyaltyPaymentSplitter",
        "label": "parentNode",
        "offset": 0,
        "slot": "5",
        "type": "t_mapping(t_bytes32,t_bytes32)"
      }
    ],
    "types": {
      "t_address": {
        "encoding": "inplace",
        "label": "address",
        "numberOfBytes": "20"
      },
      "t_array(t_address)dyn_storage": {
        "base": "t_address",
        "encoding": "dynamic_array",
        "label": "address[]",
        "numberOfBytes": "32"
      },
      "t_array(t_uint256)dyn_storage": {
        "base": "t_uint256",
        "encoding": "dynamic_array",
        "label": "uint256[]",
        "numberOfBytes": "32"
      },
      "t_bytes32": {
        "encoding": "inplace",
        "label": "bytes32",
        "numberOfBytes": "32"
      },
      "t_contract(IRoyaltyManager)9": {
        "encoding": "inplace",
        "label": "contract IRoyaltyManager",
        "numberOfBytes": "20"
      },
      "t_mapping(t_address,t_uint256)": {
        "encoding": "mapping",
        "key": "t_address",
        "label": "mapping(address => uint256)",
        "numberOfBytes": "32",
        "value": "t_uint256"
      },
      "t_mapping(t_bytes32,t_address)": {
        "encoding": "mapping",
        "key": "t_bytes32",
        "label": "mapping(bytes32 => address)",
        "numberOfBytes": "32",
        "value": "t_address"
      },
      "t_mapping(t_bytes32,t_array(t_address)dyn_storage)": {
        "encoding": "mapping",
        "key": "t_bytes32",
        "label": "mapping(bytes32 => address[])",
        "numberOfBytes": "32",
        "value": "t_array(t_address)dyn_storage"
      },
      "t_mapping(t_bytes32,t_array(t_uint256)dyn_storage)": {
        "encoding": "mapping",
        "key": "t_bytes32",
        "label": "mapping(bytes32 => uint256[])",
        "numberOfBytes": "32",
        "value": "t_array(t_uint256)dyn_storage"
      },
      "t_mapping(t_bytes32,t_bytes32)": {
        "encoding": "mapping",
        "key": "t_bytes32",
        "label": "mapping(bytes32 => bytes32)",
        "numberOfBytes": "32",
        "value": "t_bytes32"
      },
      "t_mapping(t_bytes32,t_mapping(t_address,t_uint256))": {
        "encoding": "mapping",
        "key": "t_bytes32",
        "label": "mapping(bytes32 => mapping(address => uint256))",
        "numberOfBytes": "32",
        "value": "t_mapping(t_address,t_uint256)"
      },
      "t_uint256": {
        "encoding": "inplace",
        "label": "uint256",
        "numberOfBytes": "32"
      }
    }
  }
}