{
  "address": "0xd9A6f65f9c00f483e06DDa300bC2c9acccDA10e8",
  "abi": [
    {
      "inputs": [
        {
          "internalType": "address",
          "name": "_wrapper",
          "type": "address"
        },
        {
          "internalType": "address",
          "name": "_splitter",
          "type": "address"
        }
      ],
      "stateMutability": "nonpayable",
      "type": "constructor"
    },
    {
      "anonymous": false,
      "inputs": [
        {
          "indexed": true,
          "internalType": "bytes32",
          "name": "parentNode",
          "type": "bytes32"
        },
        {
          "indexed": false,
          "internalType": "string",
          "name": "label",
          "type": "string"
        },
        {
          "indexed": true,
          "internalType": "address",
          "name": "owner",
          "type": "address"
        },
        {
          "indexed": false,
          "internalType": "bytes32",
          "name": "childNode",
          "type": "bytes32"
        },
        {
          "indexed": false,
          "internalType": "bool",
          "name": "locked",
          "type": "bool"
        }
      ],
      "name": "SubdomainCreated",
      "type": "event"
    },
    {
      "inputs": [
        {
          "internalType": "bytes32",
          "name": "parentNode",
          "type": "bytes32"
        },
        {
          "internalType": "string",
          "name": "label",
          "type": "string"
        },
        {
          "internalType": "address",
          "name": "owner",
          "type": "address"
        },
        {
          "internalType": "uint256",
          "name": "royaltyAmount",
          "type": "uint256"
        },
        {
          "internalType": "address[]",
          "name": "beneficiaries",
          "type": "address[]"
        },
        {
          "internalType": "uint256[]",
          "name": "shares",
          "type": "uint256[]"
        }
      ],
      "name": "createLockedSubdomain",
      "outputs": [
        {
          "internalType": "bytes32",
          "name": "",
          "type": "bytes32"
        }
      ],
      "stateMutability": "nonpayable",
      "type": "function"
    },
    {
      "inputs": [
        {
          "internalType": "bytes32",
          "name": "parentNode",
          "type": "bytes32"
        },
        {
          "internalType": "string",
          "name": "label",
          "type": "string"
        },
        {
          "internalType": "address",
          "name": "owner",
          "type": "address"
        },
        {
          "internalType": "uint256",
          "name": "royaltyAmount",
          "type": "uint256"
        },
        {
          "internalType": "address[]",
          "name": "beneficiaries",
          "type": "address[]"
        },
        {
          "internalType": "uint256[]",
          "name": "shares",
          "type": "uint256[]"
        }
      ],
      "name": "createSubdomain",
      "outputs": [
        {
          "internalType": "bytes32",
          "name": "",
          "type": "bytes32"
        }
      ],
      "stateMutability": "nonpayable",
      "type": "function"
    },
    {
      "inputs": [],
      "name": "splitter",
      "outputs": [
        {
          "internalType": "contract IPaymentSplitter",
          "name": "",
          "type": "address"
        }
      ],
      "stateMutability": "view",
      "type": "function"
    },
    {
      "inputs": [],
      "name": "wrapper",
      "outputs": [
        {
          "internalType": "contract IRoyaltyNameWrapper",
          "name": "",
          "type": "address"
        }
      ],
      "stateMutability": "view",
      "type": "function"
    }
  ],
  "transactionHash": "0xf311d6853be30f25449f95112f0ce3240ad369e58f50cfe7a03b28a5eda1c490",
  "args": [
    "0x0E31cfeE451Fd05254784F94149C9F6E38247197",
    "0x0191ef763e9c8a031Fc21E06a7449C9768a74921"
  ],
  "numDeployments": 2,
  "solcInputHash": "d0d572d246101efc7a7e7a4b87414adf",
  "bytecode": "0x608060405234801561001057600080fd5b506040516107c43803806107c483398101604081905261002f9161007c565b600080546001600160a01b039384166001600160a01b031991821617909155600180549290931691161790556100af565b80516001600160a01b038116811461007757600080fd5b919050565b6000806040838503121561008f57600080fd5b61009883610060565b91506100a660208401610060565b90509250929050565b610706806100be6000396000f3fe608060405234801561001057600080fd5b506004361061004c5760003560e01c80631747d1df146100515780633cd8045e14610077578063a2065f3c146100a2578063ac210cc7146100b5575b600080fd5b61006461005f366004610483565b6100c8565b6040519081526020015b60405180910390f35b60015461008a906001600160a01b031681565b6040516001600160a01b03909116815260200161006e565b6100646100b0366004610483565b610205565b60005461008a906001600160a01b031681565b60008054604051632aa47e1560e21b815282916001600160a01b03169063aa91f854906100ff908b908b908b908b906004016105c9565b6020604051808303816000875af115801561011e573d6000803e3d6000fd5b505050506040513d601f19601f8201168201806040525081019061014291906105fe565b8451909150156101b357600154604051636e13a1b760e11b81526001600160a01b039091169063dc27436e9061018090849088908890600401610617565b600060405180830381600087803b15801561019a57600080fd5b505af11580156101ae573d6000803e3d6000fd5b505050505b856001600160a01b0316887fcc99ef9ec868dc0f98be9af382d1a714e6b0de0d059ca184db385b4b73631bf3898460016040516101f2939291906106a6565b60405180910390a3979650505050505050565b60008054604051635fca761560e01b815282916001600160a01b031690635fca76159061023c908b908b908b908b906004016105c9565b6020604051808303816000875af115801561025b573d6000803e3d6000fd5b505050506040513d601f19601f8201168201806040525081019061027f91906105fe565b8451909150156102f057600154604051636e13a1b760e11b81526001600160a01b039091169063dc27436e906102bd90849088908890600401610617565b600060405180830381600087803b1580156102d757600080fd5b505af11580156102eb573d6000803e3d6000fd5b505050505b856001600160a01b0316887fcc99ef9ec868dc0f98be9af382d1a714e6b0de0d059ca184db385b4b73631bf3898460006040516101f2939291906106a6565b634e487b7160e01b600052604160045260246000fd5b604051601f8201601f1916810167ffffffffffffffff8111828210171561036e5761036e61032f565b604052919050565b80356001600160a01b038116811461038d57600080fd5b919050565b600067ffffffffffffffff8211156103ac576103ac61032f565b5060051b60200190565b600082601f8301126103c757600080fd5b813560206103dc6103d783610392565b610345565b82815260059290921b840181019181810190868411156103fb57600080fd5b8286015b8481101561041d5761041081610376565b83529183019183016103ff565b509695505050505050565b600082601f83011261043957600080fd5b813560206104496103d783610392565b82815260059290921b8401810191818101908684111561046857600080fd5b8286015b8481101561041d578035835291830191830161046c565b60008060008060008060c0878903121561049c57600080fd5b8635955060208088013567ffffffffffffffff808211156104bc57600080fd5b818a0191508a601f8301126104d057600080fd5b8135818111156104e2576104e261032f565b6104f4601f8201601f19168501610345565b8181528c8583860101111561050857600080fd5b81858501868301376000858383010152809950505061052960408b01610376565b965060608a0135955060808a013592508083111561054657600080fd5b6105528b848c016103b6565b945060a08a013592508083111561056857600080fd5b505061057689828a01610428565b9150509295509295509295565b6000815180845260005b818110156105a95760208185018101518683018201520161058d565b506000602082860101526020601f19601f83011685010191505092915050565b8481526080602082015260006105e26080830186610583565b6001600160a01b03949094166040830152506060015292915050565b60006020828403121561061057600080fd5b5051919050565b6000606082018583526020606081850152818651808452608086019150828801935060005b818110156106615784516001600160a01b03168352938301939183019160010161063c565b50508481036040860152855180825290820192508186019060005b818110156106985782518552938301939183019160010161067c565b509298975050505050505050565b6060815260006106b96060830186610583565b60208301949094525090151560409091015291905056fea2646970667358221220676dec4135678cbbe0b15c1e944ade48ffdb0868ae150b85b6f9024b63af909d64736f6c63430008140033",
  "devdoc": {
    "kind": "dev",
    "methods": {},
    "version": 1
  },
  "userdoc": {
    "kind": "user",
    "methods": {},
    "version": 1
  },
  "storageLayout": {
    "storage": [
      {
        "astId": 3534,
        "contract": "contracts/SubdomainFactory.sol:SubdomainFactory",
        "label": "wrapper",
        "offset": 0,
        "slot": "0",
        "type": "t_contract(IRoyaltyNameWrapper)3519"
      },
      {
        "astId": 3537,
        "contract": "contracts/SubdomainFactory.sol:SubdomainFactory",
        "label": "splitter",
        "offset": 0,
        "slot": "1",
        "type": "t_contract(IPaymentSplitter)3531"
      }
    ],
    "types": {
      "t_contract(IPaymentSplitter)3531": {
        "encoding": "inplace",
        "label": "contract IPaymentSplitter",
        "numberOfBytes": "20"
      },
      "t_contract(IRoyaltyNameWrapper)3519": {
        "encoding": "inplace",
        "label": "contract IRoyaltyNameWrapper",
        "numberOfBytes": "20"
      }
    }
  }
}